01REMESSA01COBRANCA       000000000000        XXXX. XXXX. XXX. XXXX. XXX. X.341BANCO ITAU SA  000000                                                                                                                                                                                                                                                                                                      000001
610000000000001730000000000    0000000000000000000000000000000N10000000000000000000000XXXX XXXXX XXXXXXXXX XXXX              R XXX XXXX XXXXXX XX XXXXXXX, 00        XXXXXXXXXXX 00000000               SP                                  ATE O VCTO., PAGUE PREFERENCIALMENTE NO ITAU           APOS O VENCIMENTO, PAGUE SOMENTE NO ITAU                                                               000002
62VERBA CONFEDERATIVA REF. MAIO/09                                     DESCONTAR 2% DO SALARIO NOMINAL DE CADA FUNCIONARIO MOTORISTA E AJUDANTE DE MOTORISTA.                                                    APOS O VENCIMENTO PAGAVEL SOMENTE NA SEDE DO SINDICATL.                                                                                                                                  000003
610000000000001730000000000    0000000000000000000000000000000N10000000000000000000000XXXXXXXXXXXXXXXXXXXXXXXXX              R XXXXXXXXXXXXXXXX, 00                  XXXXXXXXXXXXX0000000SAO PAULO      SP                                  ATE O VCTO., PAGUE PREFERENCIALMENTE NO ITAU           APOS O VENCIMENTO, PAGUE SOMENTE NO ITAU                                                               000004
62VERBA CONFEDERATIVA REF. MAIO/09                                     DESCONTAR 2% DO SALARIO NOMINAL DE CADA FUNCIONARIO MOTORISTA E AJUDANTE DE MOTORISTA.                                                    APOS O VENCIMENTO PAGAVEL SOMENTE NA SEDE DO SINDICATL.                                                                                                                                  000005
610000000000001730000000000    0000000000000000000000000000000N10000000000000000000000XXXXXXXXXXXXXXXXXXXX                   R XXXXXXXXXXXXXXXXXX, 00000 AND         CENTRO      00000000SUZANO         SP                                  ATE O VCTO., PAGUE PREFERENCIALMENTE NO ITAU           APOS O VENCIMENTO, PAGUE SOMENTE NO ITAU                                                               000006
62VERBA CONFEDERATIVA REF. MAIO/09                                     DESCONTAR 2% DO SALARIO NOMINAL DE CADA FUNCIONARIO MOTORISTA E AJUDANTE DE MOTORISTA.                                                    APOS O VENCIMENTO PAGAVEL SOMENTE NA SEDE DO SINDICATL.                                                                                                                                  000007
